{
  "contractName": "Payment",
  "abi": [
    {
      "anonymous": false,
      "inputs": [
        {
          "indexed": false,
          "internalType": "uint256",
          "name": "value",
          "type": "uint256"
        },
        {
          "indexed": false,
          "internalType": "address",
          "name": "from",
          "type": "address"
        }
      ],
      "name": "Bal",
      "type": "event"
    },
    {
      "inputs": [
        {
          "internalType": "address",
          "name": "",
          "type": "address"
        }
      ],
      "name": "paymentData",
      "outputs": [
        {
          "internalType": "uint256",
          "name": "totalAmount",
          "type": "uint256"
        },
        {
          "internalType": "uint256",
          "name": "no_payments",
          "type": "uint256"
        }
      ],
      "stateMutability": "view",
      "type": "function",
      "constant": true
    },
    {
      "inputs": [],
      "name": "sendToContract",
      "outputs": [],
      "stateMutability": "payable",
      "type": "function",
      "payable": true
    },
    {
      "inputs": [],
      "name": "getContractBalance",
      "outputs": [
        {
          "internalType": "uint256",
          "name": "",
          "type": "uint256"
        }
      ],
      "stateMutability": "view",
      "type": "function",
      "constant": true
    },
    {
      "inputs": [
        {
          "internalType": "uint256",
          "name": "_amount",
          "type": "uint256"
        }
      ],
      "name": "withdraw",
      "outputs": [],
      "stateMutability": "nonpayable",
      "type": "function"
    }
  ],
  "bytecode": "0x608060405234801561001057600080fd5b506108a8806100206000396000f3fe60806040526004361061003f5760003560e01c80630a4c137c146100445780632e1a7d4d1461004e5780636f9fb98a14610077578063864e76f7146100a2575b600080fd5b61004c6100e0565b005b34801561005a57600080fd5b506100756004803603810190610070919061051a565b61028b565b005b34801561008357600080fd5b5061008c610497565b6040516100999190610623565b60405180910390f35b3480156100ae57600080fd5b506100c960048036038101906100c491906104ed565b61049f565b6040516100d7929190610667565b60405180910390f35b346000803373ffffffffffffffffffffffffffffffffffffffff1673ffffffffffffffffffffffffffffffffffffffff168152602001908152602001600020600001600082825461013191906106ac565b9250508190555060006040518060400160405280348152602001428152509050806000803373ffffffffffffffffffffffffffffffffffffffff1673ffffffffffffffffffffffffffffffffffffffff16815260200190815260200160002060020160008060003373ffffffffffffffffffffffffffffffffffffffff1673ffffffffffffffffffffffffffffffffffffffff168152602001908152602001600020600101600081546101e390610772565b919050819055815260200190815260200160002060008201518160000155602082015181600101559050507f704c1a9c892e8fea5ea2f1f8eae2e1ce016e1a3468e0e5a1342beb96c8ba8c146000803373ffffffffffffffffffffffffffffffffffffffff1673ffffffffffffffffffffffffffffffffffffffff168152602001908152602001600020600001543360405161028092919061063e565b60405180910390a150565b806000803373ffffffffffffffffffffffffffffffffffffffff1673ffffffffffffffffffffffffffffffffffffffff16815260200190815260200160002060000154101561030f576040517f08c379a000000000000000000000000000000000000000000000000000000000815260040161030690610603565b60405180910390fd5b6000339050816000803373ffffffffffffffffffffffffffffffffffffffff1673ffffffffffffffffffffffffffffffffffffffff16815260200190815260200160002060000160008282546103659190610702565b9250508190555060008173ffffffffffffffffffffffffffffffffffffffff1683604051610392906105ce565b60006040518083038185875af1925050503d80600081146103cf576040519150601f19603f3d011682016040523d82523d6000602084013e6103d4565b606091505b5050905080610418576040517f08c379a000000000000000000000000000000000000000000000000000000000815260040161040f906105e3565b60405180910390fd5b7f704c1a9c892e8fea5ea2f1f8eae2e1ce016e1a3468e0e5a1342beb96c8ba8c146000803373ffffffffffffffffffffffffffffffffffffffff1673ffffffffffffffffffffffffffffffffffffffff168152602001908152602001600020600001543360405161048a92919061063e565b60405180910390a1505050565b600047905090565b60006020528060005260406000206000915090508060000154908060010154905082565b6000813590506104d281610844565b92915050565b6000813590506104e78161085b565b92915050565b600060208284031215610503576105026107ea565b5b6000610511848285016104c3565b91505092915050565b6000602082840312156105305761052f6107ea565b5b600061053e848285016104d8565b91505092915050565b61055081610736565b82525050565b6000610563600e8361069b565b915061056e826107ef565b602082019050919050565b6000610586600083610690565b915061059182610818565b600082019050919050565b60006105a960108361069b565b91506105b48261081b565b602082019050919050565b6105c881610768565b82525050565b60006105d982610579565b9150819050919050565b600060208201905081810360008301526105fc81610556565b9050919050565b6000602082019050818103600083015261061c8161059c565b9050919050565b600060208201905061063860008301846105bf565b92915050565b600060408201905061065360008301856105bf565b6106606020830184610547565b9392505050565b600060408201905061067c60008301856105bf565b61068960208301846105bf565b9392505050565b600081905092915050565b600082825260208201905092915050565b60006106b782610768565b91506106c283610768565b9250827fffffffffffffffffffffffffffffffffffffffffffffffffffffffffffffffff038211156106f7576106f66107bb565b5b828201905092915050565b600061070d82610768565b915061071883610768565b92508282101561072b5761072a6107bb565b5b828203905092915050565b600061074182610748565b9050919050565b600073ffffffffffffffffffffffffffffffffffffffff82169050919050565b6000819050919050565b600061077d82610768565b91507fffffffffffffffffffffffffffffffffffffffffffffffffffffffffffffffff8214156107b0576107af6107bb565b5b600182019050919050565b7f4e487b7100000000000000000000000000000000000000000000000000000000600052601160045260246000fd5b600080fd5b7f7061796d656e74206661696c6564000000000000000000000000000000000000600082015250565b50565b7f6e6f7420656e6f7567682066756e647300000000000000000000000000000000600082015250565b61084d81610736565b811461085857600080fd5b50565b61086481610768565b811461086f57600080fd5b5056fea2646970667358221220eb17917b291577b50e96239ae29cdc35154c0a5e18341c52ca81b7caf08ec77a64736f6c63430008060033",
  "immutableReferences": {},
  "source": "// SPDX-License-Identifier: MIT\r\n\r\npragma solidity ^0.8.6;\r\n\r\ncontract Payment\r\n{\r\n    event Bal(uint value,address from);\r\n    \r\n    struct payment{\r\n        uint amount;\r\n        uint timestamp;\r\n    }\r\n    \r\n    struct Balance{\r\n        uint totalAmount;\r\n        uint no_payments;\r\n        mapping(uint=>payment) payments;\r\n    }\r\n    \r\n    mapping(address=>Balance) public paymentData;\r\n    \r\n    function sendToContract() payable public\r\n    {\r\n        paymentData[msg.sender].totalAmount+=msg.value;\r\n        payment memory pay=payment(msg.value,block.timestamp);\r\n        paymentData[msg.sender].payments[++paymentData[msg.sender].no_payments]=pay;\r\n        //paymentData[msg.sender].no_payments++;\r\n        emit Bal(paymentData[msg.sender].totalAmount,msg.sender);\r\n    }\r\n    \r\n    function getContractBalance() public view returns(uint)\r\n    {\r\n        return address(this).balance;\r\n    }\r\n    \r\n    function withdraw(uint _amount) public\r\n    {\r\n        require(paymentData[msg.sender].totalAmount>=_amount,\"not enough funds\");\r\n        address payable add=payable(msg.sender);\r\n        paymentData[msg.sender].totalAmount-=_amount;\r\n        (bool sent, )=add.call{value:_amount}(\"\");\r\n        require(sent,\"payment failed\");\r\n        emit Bal(paymentData[msg.sender].totalAmount,msg.sender);\r\n        \r\n    }\r\n}",
  "sourcePath": "C:\\Users\\parth\\Desktop\\Ethereum\\Pay_withdraw_event\\contracts\\Bank.sol",
  "compiler": {
    "name": "solc",
    "version": "0.8.6+commit.11564f7e.Emscripten.clang"
  },
  "schemaVersion": "3.4.3",
  "updatedAt": "2021-10-05T13:42:22.465Z",
  "networkType": "ethereum",
  "devdoc": {
    "kind": "dev",
    "methods": {},
    "version": 1
  },
  "userdoc": {
    "kind": "user",
    "methods": {},
    "version": 1
  }
}